:020000040000FA
:100000000C9463000C948B000C948B000C94D91806
:100010000C94D9180C94D9180C948B000C948B0068
:100020000C948B000C948B000C948B000C948B0024
:100030000C948B000C948B000C948B000C948B0014
:100040000C948F180C948B000C948B000C948B00E8
:100050000C948B000C948B000C948B000C948B00F4
:100060000C9451190C948B00000000002400270010
:100070002A0000000008000201000003040700003D
:1000800000000000000000000000230026002900FE
:1000900000000000250028002B00040404040404D0
:1000A0000404020202020202030303030303010227
:1000B00004081020408001020408102001020408F6
:1000C0001020D51A4E1F11241FBECFEFD8E0DEBF7F
:1000D000CDBF26E0A6EFB4E001C01D92A43DB2075B
:1000E000E1F714E0A0E0B1E0EAECF4E402C005902E
:1000F0000D92A63FB107D9F710E0C2E6D0E004C0E8
:100100002197FE010E943F20C136D107C9F70E9406
:10011000641B0C9458220C940000DF92EF92FF9223
:100120000F931F93CF93DF93EC0180914906909139
:100130004A066981DC01ED91FC910190F081E02D8E
:1001400009958091490690914A06DC01ED91FC9158
:100150000190F081E02D6881099580914906909188
:100160004A06DC01ED91FC910190F081E02D6A815D
:1001700009958091490690914A06DC01ED91FC9128
:100180000190F081E02D6B81099580914906909155
:100190004A06DC01ED91FC910190F081E02D6C812B
:1001A00009958091490690914A06DC01ED91FC91F8
:1001B0000190F081E02D6D81099580914906909123
:1001C0004A06DC01ED91FC910190F081E02D6E81F9
:1001D00009950F8118850E5F1F4F809149069091F8
:1001E0004A06E12EFF24DC01ED91FC910190F081A3
:1001F000E02D6E2D09958091490690914A06DC010B
:10020000ED91FC910190F081E02D602F09950E0D8C
:100210001F2D111D8E81080F111DD12C80914906B3
:1002200090914A06DC01ED91FC910190F081E02D66
:10023000ED2CF12C2F813885E216F30660F4EC0EDC
:10024000FD1ED70119966C910995F7018185080F5C
:10025000111DD394E3CF612F0995809149069091A8
:100260004A06DC01ED91FC910190F081E02D602FB8
:10027000DF91CF911F910F91FF90EF90DF90099444
:10028000CF9380938E06C0918F06209190062C1BF1
:10029000330B032E000C440B550B542F432F322FDE
:1002A0002227DC010E94452024EB30E040E050E0B2
:1002B0000E9420206C2F70E090E080E0982F872F24
:1002C000762F6627620F731F841F951F28E030E08A
:1002D00040E050E00E94202080918D06893031F46A
:1002E0003093890020938800CF9108958A30E1F7F8
:1002F00030938B0020938A00F7CF91E09093E7052D
:10030000809309061092E80510920A06089580E08D
:1003100090E0892B49F080E090E0892B29F00E9441
:10032000000081110C9400000895AF92BF92CF920B
:10033000DF92EF92FF920F931F93CF93DF936C01A5
:100340007B018B01040F151FEB015E01AE18BF0886
:10035000C017D10759F06991D601ED91FC91019038
:10036000F081E02DC6010995892B79F7C501DF9150
:10037000CF911F910F91FF90EF90DF90CF90BF90A2
:10038000AF900895833081F028F4813099F0823065
:10039000A9F008958730A9F08830C9F08430B1F40D
:1003A000809180008F7D03C0809180008F77809343
:1003B0008000089584B58F7784BD089584B58F7DBE
:1003C000FBCF8091B0008F778093B000089580912B
:1003D000B0008F7DF9CFCF93DF93282F30E0F90164
:1003E000EE58FF4F8491F901E255FF4FD491F90186
:1003F000E656FF4FC491CC23A1F081110E94C201A7
:10040000EC2FF0E0EE0FFF1FEA57FF4FA591B491DC
:10041000EC91ED2381E090E009F480E0DF91CF9151
:10042000089580E090E0FACF1F93CF93DF93282FB9
:1004300030E0F901EE58FF4F8491F901E255FF4F8A
:10044000D491F901E656FF4FC491CC23A9F0162FA1
:1004500081110E94C201EC2FF0E0EE0FFF1FE05768
:10046000FF4FA591B4918FB7F894EC91111108C08A
:10047000D095DE23DC938FBFDF91CF911F9108953C
:10048000DE2BF8CFCF93DF9390E0FC01E255FF4FD6
:10049000249186569F4FFC0184918823C9F090E0F7
:1004A000880F991FFC01E859FF4FA591B491FC01F9
:1004B000E057FF4FC591D49161110DC09FB7F894DB
:1004C0008C91209582238C938881282328839FBF39
:1004D000DF91CF910895623051F49FB7F8943C9129
:1004E000822F809583238C93E8812E2BEFCF8FB7BB
:1004F000F894EC912E2B2C938FBFEACF862F642F8C
:100500000C9442023FB7F8948091890590918A0536
:10051000A0918B05B0918C0526B5A89B05C02F3FF7
:1005200019F00196A11DB11D3FBFBA2FA92F982F19
:100530008827BC01CD01620F711D811D911D42E014
:10054000660F771F881F991F4A95D1F708958F92DC
:100550009F92AF92BF92CF92DF92EF92FF924B01A8
:100560005C010E9482026B017C010E9482026C1974
:100570007D098E099F09683E734081059105A8F3A6
:1005800021E0821A9108A108B10888EEC80E83E024
:10059000D81EE11CF11C81149104A104B10429F7B7
:1005A000FF90EF90DF90CF90BF90AF909F908F9093
:1005B0000895EF92FF920F931F93CF93DF93EC0177
:1005C000F12CE12C10E000E08091490690914A0660
:1005D000DC01ED91FC910084F185E02D0995892BDA
:1005E000B1F461E070E080E090E00E94A702BFEF0C
:1005F000EB1AFB0A88EEE81683E0F80628F38FEF83
:10060000DF91CF911F910F91FF90EF90089580910E
:10061000490690914A06DC01ED91FC910284F38534
:10062000E02D09950930110580F5F801E65EFC4FD3
:100630000C943F2023032B03350335033503350387
:100640003A033C033F038F3E09F0BECF18828983F3
:100650000F5F1F4FB9CF28813981282B3983288319
:1006600021303F4EA9F38EEFCBCFFE01E00FF11FFB
:100670008083EECF8E83ECCF1F828887E9CF2F81D6
:100680003885282B38872F83E3CFFE01E00FF11F39
:1006900080832F813885C801089782179307C1F698
:1006A00080E0AECF2FB7F8946091850570918605F4
:1006B00080918705909188052FBF0895209182052C
:1006C000309183052817390771F490918105809145
:1006D0008005981741F0E0918105F0E0E05CFA4F69
:1006E000808190E008958FEF9FEF08950F931F93FF
:1006F0000E94520360937606709377068093780683
:10070000909379068EE696E00E945E0397FF1DC0E7
:100710000E94520300917606109177062091780688
:1007200030917906601B710B820B930B009172065E
:100730001091730620917406309175066017710749
:1007400082079307F8F28FEF9FEF1F910F910895A3
:100750000895EF92FF920F931F93CF93DF93DC01E5
:100760005C96ED90FC905D97E114F10479F481E0E2
:1007700090E013969C938E93129790E080E0DF9127
:10078000CF911F910F91FF90EF9008955196ED91A9
:10079000FC91529750968C915097982F90950FB747
:1007A0005E962C915E97122F127021FD6095F89441
:1007B0002081112319F1282B2083E7012197F1F7DC
:1007C00028E0462F50E0308160FF1AC0382B30837C
:1007D000E7012197F1F7BA0175956795215089F7DF
:1007E000112381F08081892380830FBF5C968D91D6
:1007F0009C910197F1F781E090E0C1CF2923DCCFF4
:100800003923E5CF9081892BEFCF2091820530915C
:1008100083052817390771F480918005209181059F
:1008200090E0805C9F4F821B910960E470E00E9421
:10083000EA1F089590E080E00895209182053091AC
:10084000830528173907B9F49091810580918005B7
:10085000981789F0E0918105F0E0E05CFA4F808123
:100860002091810530E02F5F3F4F2F733327209376
:10087000810590E008958FEF9FEF0895E091820544
:10088000F0918305E817F90769F4A389B4899C916D
:100890008589809589238C93109283051092820517
:1008A00081E0089580E00895CF93DF93EC018A8D75
:1008B0009B8D892B01F180918205909183058C1786
:1008C0009D07C9F0009711F00E943E048E8D8E7F27
:1008D0008E8F1092800510928105D0938305C0936E
:1008E0008205EB89FC8980819D89892B808381E049
:1008F000DF91CF91089580E0FBCFCF93DF93EC01A0
:100900009A01AB011B8E1A8E198E188E1F8A1E8AB1
:1009100060E079E08DE390E00E942020F901C901B8
:1009200003972430310510F481E090E09D8F8C8F87
:100930006C85663108F052C0C9019695879584315F
:10094000910508F450C043979F8B8E8BC901059782
:10095000369710F481E090E0998F888FC901880F55
:10096000991F280F391F36952795369527952D30D5
:100970003105E0F12C5031093B8F2A8F90916800AE
:1009800084E0683048F021E06E3008F420E081E037
:1009900001C0880F2A95EAF7892B809368009C850F
:1009A0002DE630E0983050F02BE630E09E3030F00D
:1009B0002CE630E0963110F030E020E03C8B2B8BC1
:1009C000292F30E09830A8F481E001C0880F9A9573
:1009D000EAF78D8B8C8D9D8D0197F1F7CE01DF911C
:1009E000CF910C94540481E090E0AECF21E030E050
:1009F000C3CF9E3040F42850310981E001C0880FF8
:100A00002A95EAF7E6CF2E503109F7CF8F929F92C1
:100A1000AF92BF92EF92FF921F93CF93DF93EC01BF
:100A2000162FE881F9810484F585E02D462F70E0CA
:100A300060E009957C0111501230D8F419861A86AD
:100A400088889988AA88BB880E948202688F798FDB
:100A50008A8F9B8F8C8E9D8EAE8EBF8EC701DF914D
:100A6000CF911F91FF90EF90BF90AF909F908F908C
:100A700008958C889D88AE88BF88E6CFDC011896E3
:100A80008C911897481710F04FEF480F1B969C91C8
:100A90001B97992389F017969C911797691730F047
:100AA000691B4F5F4817D0F340E0F8CF19966C935D
:100AB00019971A964C931A97FD01E40FF11D84853E
:100AC000680F6068CD010C9406058F929F92AF92DB
:100AD000BF92EF92FF920F931F93CF93DF93EC019E
:100AE000462FE881F9810484F585E02D61E070E00E
:100AF00009957C018C889D88AE88BF880E948202FF
:100B0000688F798F8A8F9B8F8C8E9D8EAE8EBF8ED5
:100B100001E010E0EF2811F010E000E08B85882361
:100B200099F089858F5F89879F81891768F0198679
:100B30008A858F5F8A879885891708F01A864A8583
:100B400060E0CE010E943E05C801DF91CF911F9168
:100B50000F91FF90EF90BF90AF909F908F9008956E
:100B60008DEF9FEF08958DEF9FEF089590E080E067
:100B7000089520911B05260F3327331F213231059D
:100B8000ECF42091E105FC0190E080E0243069F074
:100B900082E00895A0911B052191AC0147505B4F65
:100BA000A40FB52FB11D2C930196861798F3809151
:100BB0001B05680F60931B0580E0089581E0089590
:100BC0001092E10581E08093E0051092BB0561E0A1
:100BD00082E10E94140261E083E10E941402E9EBC9
:100BE000F0E080818E7F808380818D7F808388E4A8
:100BF0008093B80085E48093BC000895CF93DF9381
:100C000091E09093F8048823B9F0C091B800D09196
:100C1000BA008091BC008A7B8093BC0060E082E1D6
:100C20000E94140260E083E10E9414020E94E00529
:100C3000D093BA00C093B800DF91CF910895CF92BE
:100C4000DF92EF92FF920F931F93CF93DF93D09198
:100C50000A0681E0D13208F09CC0C09109060E94CA
:100C600082026B017C018091E10581116CC082E000
:100C70008093E10581E08093E0058FEF8093DF05AD
:100C80001092DE05D093DD05A9EEB5E0EDEBF5E0C1
:100C900080E0D8138DC01092BC058091BC05CC0FAC
:100CA000C82BC093BC058091BB05813009F084C07E
:100CB0001092BB050E9482026B017C018091BC05F1
:100CC0008093BB008091E3059091E405A091E50538
:100CD000B091E605892B8A2B8B2BA1F00E94820212
:100CE0000091E3051091E4052091E5053091E605BA
:100CF0006C197D098E099F09061717072807390700
:100D000008F442C08091BC0083FDD8CF85EC80936D
:100D1000BC000E9482026B017C018091E10582305F
:100D200009F44CC08091DF058F3F09F469C08091C0
:100D3000DF05803209F466C08091DF05803309F455
:100D400063C084E026C08091E3059091E405A09102
:100D5000E505B091E605892B8A2B8B2B09F483CF0F
:100D60000E9482020091E3051091E4052091E505BF
:100D70003091E6056C197D098E099F090617170742
:100D80002807390708F06FCF8091E2050E94FE0521
:100D900085E01092E80510920A061092E705DF91AF
:100DA000CF911F910F91FF90EF90DF90CF9008951A
:100DB0009D9191938F5F6DCF85EEA9CF8091E305D3
:100DC0009091E405A091E505B091E605892B8A2B69
:100DD0008B2B09F4A2CF0E9482020091E3051091AF
:100DE000E4052091E5053091E6056C197D098E0931
:100DF0009F09061717072807390708F08ECFC4CFB9
:100E000080E0C7CF82E0C5CF83E0C3CF08950895C7
:100E1000E0919A0580919905E81730F4F0E0E556E5
:100E2000FA4F808190E008958FEF9FEF08959091A1
:100E30009A05809199052FEF3FEF981748F4E92F15
:100E4000F0E0E556FA4F208130E09F5F90939A05DD
:100E5000C90108958091990590919A05891B990B74
:100E60000895CF92DF92EF92FF920F931F93CF934B
:100E7000DF937C01CB018A012091E705222389F0D1
:100E8000EB016B01C40ED51ECC15DD0569F069912F
:100E9000D701ED91FC910190F081E02DC7010995FA
:100EA000F3CF642F0E94B905C801DF91CF911F9144
:100EB0000F91FF90EF90DF90CF900895CF93DF9345
:100EC0001F92CDB7DEB769832091E7052223F9F0A1
:100ED00020910A06203258F021E030E0FC013383F3
:100EE000228390E080E00F90DF91CF910895809170
:100EF000E805E82FF0E0E751FA4F998190838F5F82
:100F00008093E80580930A0681E090E0ECCF61E0F1
:100F1000CE0101960E94B905F7CF682F8BE096E0CD
:100F20000C945E07FC01808580FD04C082FB88274D
:100F300080F9089580E00895FC0181890E94EB0109
:100F400021E0892B09F420E0822F0895CF92DF92CF
:100F5000EF92FF920F931F93CF93DF93EC0188855D
:100F60008B7F8887CE010E949C07182F88858695E5
:100F700081701817B9F00E9452036A837B838C83B7
:100F80009D83888592E089278887888582FB8827CA
:100F900080F9DF91CF911F910F91FF90EF90DF903B
:100FA000CF9008950E945203CA80DB80EC80FD80C0
:100FB000AB01BC014C195D096E097F098E819F81CF
:100FC000B0E0A0E0481759076A077B07F0F2888570
:100FD00081701817D1F20E9452036A837B838C833D
:100FE0009D83888591E08927846088870E945203C9
:100FF00009851A852B853C85601B710B820B930B31
:101000006D877E878F87988B0E94520369877A87C6
:101010008B879C87BACF0F931F93CF93DF93182FA3
:10102000D0E0C0E28C2F0E947D010E941F06082F95
:1010300061E070E080E090E00E94A702011103C02F
:101040001D17D1F0DF5FCF5FC83261F7C8E38C2F87
:101050000E947D010E941F06082F61E070E080E081
:1010600090E00E94A702011103C01D1729F0DF5F65
:10107000CF5FC03461F7C0E08C2FDF91CF911F911B
:101080000F910895CF93FC01C4A560FF02C086A113
:10109000C82B61FF02C087A1C82B62FF02C080A5D8
:1010A000C82B63FF02C081A5C82B4130510511F444
:1010B00083A1C82B85A18C2B90E00E948D076C2FFB
:1010C0008BE096E0CF910C945E07CF93DF93EC0119
:1010D0008AA5882349F19BA5662311F1913011F56A
:1010E0008CA788A10E947D0189A19AA1029721F471
:1010F00089E090E00E948D076CA58BE096E00E944D
:101100005E070E941F0621E030E0811102C030E03E
:1011100020E088279927821B930BDF91CF910895B8
:101120009923F1F21CA6DDCF8DEF9FEFF6CF4F9202
:101130005F926F927F928F929F92AF92BF92EF9247
:10114000FF921F93CF93DF93EC0188A1882309F4CA
:1011500059C089A19AA1892B09F454C0142F7B018D
:101160004C8C5D8C6E8C7F8C888C998CAA8CBB8C03
:101170008DE2881A9108A108B1080E9482026819BC
:1011800079098A099B096415750586059705A8F3F1
:1011900088A10E947D0189A19AA1029721F489E08A
:1011A00090E00E948D07612F70E084E0759567954F
:1011B0008A95E1F7A701CE010E94420882E0E81675
:1011C000F10431F0612F6F70A701CE010E94420837
:1011D0000E941F0621E030E0811102C030E020E0D3
:1011E00088279927821B930BDF91CF911F91FF9046
:1011F000EF90BF90AF909F908F907F906F905F9097
:101200004F9008958CEF9FEFEFCFCF92DF92EF9248
:10121000FF920F931F93CF93DF93482F62E070E00C
:1012200081E996E00E9497088C01C1E9D6E0CC885C
:10123000DD88EE88FF880E948202688F798F8A8F0E
:101240009B8FCC8EDD8EEE8EFF8EC801DF91CF910D
:101250001F910F91FF90EF90DF90CF900895089528
:101260009F92AF92BF92CF92DF92EF92FF920F9335
:101270001F93CF93DF93962EA42EB22EE701682FF3
:101280008DE00E941402692D8CE00E94140261E03E
:1012900081E996E00E94060540E06A2D81E996E02A
:1012A0000E943E05F801448155816081718181E988
:1012B00096E00E94950141E06B2D81E996E00E9445
:1012C0003E054C815D816881798181E996E00E94CB
:1012D0009501C114D10489F0B601DD0C880B990B7E
:1012E000DF91CF911F910F91FF90EF90DF90CF9002
:1012F000BF90AF909F900C94A702DF91CF911F9168
:101300000F91FF90EF90DF90CF90BF90AF909F90A4
:101310000895CF92DF92EF92FF920F931F93CF9396
:10132000C82F0E9482026B017C018091E10581112E
:1013300064C081E08093E1058093E0059FEF909386
:10134000DF051092DE051092DD058093BC058091CB
:10135000BC05CC0FC82BC093BC058091BB05813068
:1013600009F07DC01092BB050E9482026B017C01D6
:101370008091BC058093BB008091E3059091E405CA
:10138000A091E505B091E605892B8A2B8B2BA1F066
:101390000E9482020091E3051091E4052091E50589
:1013A0003091E6056C197D098E099F09061717070C
:1013B0002807390708F442C08091BC0083FDD8CFCC
:1013C00085EC8093BC000E9482026B017C018091BD
:1013D000E105813009F445C08091DE05811163C0CB
:1013E0008091DE05EDEBF5E0ABE9B5E090E0981714
:1013F00051F121912D939F5FFACF8091E305909158
:10140000E405A091E505B091E605892B8A2B8B2B8D
:1014100009F48BCF0E9482020091E3051091E4054C
:101420002091E5053091E6056C197D098E099F092B
:10143000061717072807390708F077CF8091E205CC
:101440000E94FE0580E010929A0580939905CF9145
:101450001F910F91FF90EF90DF90CF90089585EE50
:10146000B0CF8091E3059091E405A091E505B0919E
:10147000E605892B8A2B8B2B09F4A9CF0E948202C7
:101480000091E3051091E4052091E5053091E60512
:101490006C197D098E099F09061717072807390758
:1014A00008F095CFCBCF81E09DCF4F925F926F92A6
:1014B0007F928F929F92AF92BF92EF92FF920F9383
:1014C0001F93CF93DF93EC011CA588A1882309F417
:1014D000E1C089A19AA1009709F4DCC0029709F440
:1014E000DCC08CA1882309F4D8C07B014C8C5D8CB6
:1014F0006E8C7F8C888C998CAA8CBB8C8DE2881A20
:101500009108A108B1080E948202681979098A0924
:101510009B096415750586059705A8F38EA1182B00
:101520008FA1182B88A5182B89A5182BEA94EF28D2
:1015300011F48BA1182B8CA1182B88A10E947D017E
:10154000612F8BE096E00E945E070E941F068823B1
:1015500001F10FEF1FEF88A10E947D016CA58BE0C8
:1015600096E00E945E070E941F06882311F00FEF8D
:101570001FEFC801DF91CF911F910F91FF90EF9066
:10158000BF90AF909F908F907F906F905F904F90A3
:10159000089588A10E947D018DA1812B90E00E9479
:1015A0008D070E941F068111D4CF88A190E00E9470
:1015B00089098BE096E00E9417077C0197FDC9CF4F
:1015C00088A10E947D01612F8BE096E00E945E075A
:1015D0000E941F06082F8111BCCF8EA190E08E21A2
:1015E0009F21892B09F000E18FA190E08E219F219E
:1015F000892B09F0006288A590E08E219F21892B1C
:1016000009F0006489A590E08E219F21892B09F0C3
:10161000006888A10E947D018DA1812B90E00E942D
:101620008D070E941F06811194CF88A190E00E942F
:1016300089098BE096E00E9417077C0197FD89CF0E
:1016400088A10E947D01612F8BE096E00E945E07D9
:101650000E941F0681117DCF8EA190E08E219F21D7
:10166000892B09F001608FA190E08E219F21892BA9
:1016700009F0026088A590E08E219F21892B09F056
:10168000046089A590E08E219F21892B09F00860D4
:1016900010E061CF0CEF1FEF6CCF0DEF1FEF69CFA4
:1016A0000F931F93CF93DF93EC0110929A05109242
:1016B00099051092E80510920A060E94E00586E05E
:1016C00097E090931A058093190587E097E090932F
:1016D0001E0580931D0588A181117EC08091F704AD
:1016E00091E0980F9093F7040E940B0888A388A1BB
:1016F000811109C08091F70491E0980F9093F7044D
:101700000E940B0888A318A1112309F46CC089A1B9
:101710009AA1892B09F021C1812F0E947D0160E0EF
:101720008BE096E00E945E076FEF8BE096E00E94F0
:101730005E070E941F06812F0E947D0160E08BE002
:1017400096E00E945E070E941F06812F90E00E9493
:1017500089098BE096E00E9417078F3F910509F0F9
:1017600049C082E090E09AA389A388A10E947D01EC
:1017700060E08BE096E00E945E078FEF90E00E94B1
:101780008D070E941F0688A10E947D0186E090E0DF
:101790000E948D078FE790E00E948D070E941F0630
:1017A00088A10E947D0189E090E00E948D070E943F
:1017B0001F0688A190E00E9489098BE096E00E94B4
:1017C00017078F3709F002C127E036E045E054E003
:1017D00063E072E0E1E005C10E947D010E941F0606
:1017E000882309F484CF8CEF9FEFDF91CF911F9175
:1017F0000F910895892B29F01AA219A28FEF9FEF5C
:10180000F4CF81E090E09AA389A388A10E947D0192
:101810006FEF8BE096E00E945E070E941F0688A192
:1018200090E00E9489098BE096E00E9417078C01E6
:1018300088A10E947D016BEF8BE096E00E945E071D
:101840000E941F0688A190E00E9489098BE096E023
:101850000E9417079801277033272730310509F0B8
:101860004DC0807F9927803F910509F047C083E0F4
:10187000169507958A95E1F761E00627017043E028
:1018800057E066E075E0E4E022E0F1E030E081E07E
:1018900090E0DC0101C0AA0F3A95EAF7ABA3DC01A6
:1018A00001C0AA0FFA95EAF7ACA3DC0102C0AA0FA7
:1018B000BB1F2A95E2F7ADA39C0101C0220FEA9558
:1018C000EAF72EA39C0101C0220F7A95EAF72FA315
:1018D0009C0101C0220F6A95EAF728A79C0101C06C
:1018E000220F5A95EAF729A701C0880F4A95EAF70F
:1018F0008AA70BA7013081F58CA72FC0C80180777C
:1019000099278037910519F08DEF9FEF6ECF88A151
:101910000E947D016FEE8BE096E00E945E070E94C0
:101920001F0688A190E00E9489098BE096E00E9442
:1019300017078F70992726E034E00F9711F424E001
:1019400036E00095001F0027001F47E053E062E0EB
:1019500071E0E0E0F5E09BCF1CA688A10E947D012C
:1019600089A19AA1029701F585E090E00E948D0778
:1019700080E290E00E948D070E941F0688A10E94CD
:101980007D0160E08BE096E00E945E0760E08BE006
:1019900096E00E945E070E941F0688A10E947D01BA
:1019A00089E090E00E948D0760E08BE096E00E9465
:1019B0005E070E941F0621E030E0811102C030E086
:1019C00020E088279927821B930B0FCF86FF3BC00F
:1019D00081FD9ACF21E032E043E054E065E076E01B
:1019E000E7E081E090E0DC0102C0AA0FBB1FEA95AE
:1019F000E2F7ABA31CA2FC0101C0EE0F7A95EAF757
:101A0000EDA3FC0102C0EE0FFF1F6A95E2F7EEA303
:101A1000BC0101C0660F5A95EAF76FA3BC0102C072
:101A2000660F771F4A95E2F768A7AC0101C0440F23
:101A30003A95EAF749A701C0880F2A95EAF78AA7DD
:101A400091E09BA759CF26E033E042E051E060E00F
:101A500077E0E4E0C6CFFC019B01BA0181E09FEE94
:101A60009183808381E08683308727838FEF828311
:101A7000838384838583A901CF0109960C9448222E
:101A8000CF93DF93CDB7DEB7CA54D1090FB6F89420
:101A9000DEBF0FBECDBF81E02B968FAF2B97AE017F
:101AA000465B5F4F61E070E0CE0101960E942B0D16
:101AB000CE0101960E948D00CE0101960E94D902AE
:101AC00081110EC08F81873059F48A85C65BDF4F44
:101AD0000FB6F894DEBF0FBECDBFDF91CF91089552
:101AE00081E0F4CFCF93DF93CDB7DEB7CB54D109EC
:101AF0000FB6F894DEBF0FBECDBF92E02B969FAF1E
:101B00002B972C968FAF2C97AE01465B5F4F62E010
:101B100070E0CE0101960E942B0DCE0101960E942D
:101B20008D00CE0101960E94D90281110EC08F81D5
:101B3000873059F48A85C55BDF4F0FB6F894DEBF56
:101B40000FBECDBFDF91CF91089581E0F4CFCF9349
:101B5000DF93CDB7DEB7CE54D1090FB6F894DEBF10
:101B60000FBECDBF83E12B968FAF2B9780912D06B3
:101B700090912E0620912F06309130062C963FAF83
:101B80002C972D962FAF2D972E969FAF2E972F9691
:101B90008FAF2F97AE01465B5F4F65E070E0CE01DF
:101BA00001960E942B0DCE0101960E948D00CE0160
:101BB00001960E94D902811112C08F81873079F479
:101BC00081E09A85911101C080E0C25BDF4F0FB6C2
:101BD000F894DEBF0FBECDBFDF91CF91089581E0B5
:101BE000F4CF8F929F92AF92BF920F931F93CF9398
:101BF000DF93CDB7DEB7A1970FB6F894DEBF0FBE67
:101C0000CDBF19A2423008F44AE08E010F5D1F4F8C
:101C1000842E912CB12CA12CA50194010E94FE1FB1
:101C2000E62FB901CA01EA3044F5E05DD801EE9330
:101C30008D01232B242B252B79F790E080E0109742
:101C400069F0FD0101900020E9F73197AF014A1BCF
:101C50005B0BBD018EE696E00E949501A1960FB642
:101C6000F894DEBF0FBECDBFDF91CF911F910F91D2
:101C7000BF90AF909F908F900895E95CD7CFCF939E
:101C8000DF93BC01990F880B990B4AE00E94F10D7C
:101C9000EC0142E050E06EE571E08EE696E00E94D5
:101CA00095018C0F9D1FDF91CF9108950E944322D3
:101CB0000F931F93CF93DF93EC0188819981009755
:101CC00059F02A813B812617370730F081E0DF91F8
:101CD000CF911F910F9108958B016F5F7F4F0E94ED
:101CE0008621009759F0998388831B830A832C816E
:101CF0003D81232B59F7FC011082E8CF80E0E7CF2C
:101D0000CF93DF93EC0188819981009711F00E94B5
:101D1000FD20198218821D821C821B821A82DF918B
:101D2000CF910895CF92DF92EF92FF920F931F937E
:101D3000CF93DF9300D000D0CDB7DEB77C01862FE4
:101D40004AE09E012F5F3F4F6901B90190E00E9478
:101D5000641FF60101900020E9F73197EC19FD09A5
:101D6000D9F0D70114960D911C910E0F1F1FB801C9
:101D7000C7010E94580E8823E9F0F70120813181C4
:101D800084819581B601820F931F0E945122D70151
:101D900015961C930E931497C7010F900F900F90F8
:101DA0000F90DF91CF911F910F91FF90EF90DF90F7
:101DB000CF900895C7010E94800EEECFEF92FF9260
:101DC0000F931F93CF93DF93EC01FB01E080F18031
:101DD000E114F10411F10481158101151105A9F037
:101DE0008C819D81080F191FB801CE010E94580EE9
:101DF000882399F0288139818C819D81B701820FD8
:101E0000931F0E9451221D830C83CE01DF91CF913D
:101E10001F910F91FF90EF900895CE010E94800EC8
:101E2000F4CFEF92FF920F931F93CF93DF93EC01C8
:101E30008617970781F0FB010081118101151105BB
:101E400039F0E480F580B7010E94580E81110BC073
:101E5000CE010E94800ECE01DF91CF911F910F9194
:101E6000FF90EF900895FD82EC82B80188819981FE
:101E70000E945122F0CFFC01118210821382128243
:101E8000158214820C94110FEF92FF920F931F93FF
:101E9000CF93DF93EC017B01198218821B821A8297
:101EA0001D821C82FB0101900020E9F731978F0110
:101EB000061B170BB8010E94580E811109C0CE01F4
:101EC000DF91CF911F910F91FF90EF900C94800EB6
:101ED0001D830C83B70188819981DF91CF911F9178
:101EE0000F91FF90EF900C945122FC018081918121
:101EF000009711F00C94FD200895CF92DF92EF929D
:101F0000FF920F931F93CF93DF93CDB7DEB72C973C
:101F10000FB6F894DEBF0FBECDBF809194059091AF
:101F2000F604913009F05BC08130B1F561E671E0F3
:101F3000CE0107960E94440F6AE671E0CE01019639
:101F40000E94440FD12CC12CCE0107967C018E013A
:101F50000F5F1F4F23E030E050E040E060E080E0A2
:101F60000E943009C8010E94750FC7010E94750FB9
:101F70008091F60490E00E943F0E2C960FB6F894E4
:101F8000DEBF0FBECDBFDF91CF911F910F91FF90AC
:101F9000EF90DF90CF9008956BE771E0CE01079648
:101FA0000E94440F6DE871E0CE0101960E94440F3B
:101FB000D12CC12CCE0107967C018E010F5F1F4FE3
:101FC00021E030E043E050E061E081E00E94300930
:101FD000C8010E94750FC7010E94750FCECF8130D6
:101FE00009F4A4CF69E971E0CE0107960E94440F7D
:101FF00066EA71E0CE0101960E94440FD12CC12CFB
:10200000CE0107967C018E010F5F1F4F23E030E069
:1020100042E050E061E080E0D9CFCF92DF92EF92D2
:10202000FF920F931F93CF93DF93CDB7DEB72C971B
:102030000FB6F894DEBF0FBECDBF8EE696E00E94CD
:1020400054048EE696E00E940504892BD1F30E9489
:102050007603FC0197FD6DC08D32910521F0C0978C
:102060000A9708F05FC0C12CD12C760110E0E13056
:10207000F105D9F0ED32F10509F459C0CF01C0974F
:102080000A9798F4AAE0B0E0A70196010E94991F70
:102090006F01FF0FEE08FF08C60ED71EE81EF91EDF
:1020A00080E3C81AD108E108F1088EE696E00E94A4
:1020B0001D040E947603FC01C0970A97C0F2E1302C
:1020C000F105A9F2112341F0F094E094D094C0946A
:1020D000C11CD11CE11CF11C94E19C1570F564EB52
:1020E00071E0CE0107960E94440F65EC71E0CE01CD
:1020F00001960E94440FD12CC12CCE0107967C0181
:102100008E010F5F1F4F30E020E042E050E061E0C1
:1021100080E00E943009C8010E94750FC7010E942B
:10212000750F8FCF8EE696E00E941D0490CF11E0D0
:10213000BCCFC12CD12C7601CFCF8C2D2C960FB6D5
:10214000F894DEBF0FBECDBFDF91CF911F910F91ED
:10215000FF90EF90DF90CF900895CF92DF92EF92B3
:10216000FF920F931F93CF93DF93CDB7DEB72C97DA
:102170000FB6F894DEBF0FBECDBF80918E068111E1
:1021800035C061ED71E0CE0107960E94440F6FEDFE
:1021900071E0CE0101960E94440F94EFC92EDD2418
:1021A000D394CE0107967C018E010F5F1F4F22E072
:1021B00030E044E050E061E080E00E943009C80176
:1021C0000E94750FC7010E94750F0E947D0F2C960B
:1021D0000FB6F894DEBF0FBECDBFDF91CF911F9138
:1021E0000F91FF90EF90DF90CF90089560E671E03F
:1021F000CE0107960E94440F67EE71E0CE01019672
:102200000E94440FD12CC12CCE0107967C018E0177
:102210000F5F1F4F30E020E043E050E060E080E0DF
:102220000E943009C8010E94750FC7010E94750FF6
:1022300090E080E00E94400164EF71E080E090E077
:102240000E94A70262EF71E0C7010E94440F6FEF86
:1022500071E0C8010E94440F84EFC82EDD24D3949E
:1022600022E030E043E050E060E081E0A6CFCF9292
:10227000DF92EF92FF920F931F93CF93DF93CDB72F
:10228000DEB72C970FB6F894DEBF0FBECDBF80919E
:102290008E06843BA9F568E072E0CE0107960E94A5
:1022A000440F6FED71E0CE0101960E94440F94EF50
:1022B000C92EDD24D394CE0107967C018E010F5FD9
:1022C0001F4F21E030E044E050E061E080E00E94F8
:1022D0003009C8010E94750FC7010E94750F0E9446
:1022E0007D0F2C960FB6F894DEBF0FBECDBFDF91E9
:1022F000CF911F910F91FF90EF90DF90CF900895B5
:1023000060E671E0CE0107960E94440F68E172E03A
:10231000CE0101960E94440FD12CC12CCE0107960C
:102320007C018E010F5F1F4F30E020E043E050E062
:1023300060E080E00E943009C8010E94750FC7016B
:102340000E94750F84EB90E00E94400164EF71E001
:1023500080E090E00E94A70263E272E0C7010E9461
:10236000440F6FEF71E0C8010E94440F84EFC82E44
:10237000DD24D39422E030E044E050E060E081E0EE
:10238000A6CFCF92DF92EF92FF920F931F93CF933E
:10239000DF93CDB7DEB72C970FB6F894DEBF0FBE34
:1023A000CDBF60E372E0CE0107960E94440F60E467
:1023B00072E0CE0101960E94440FD12CC12CCE01B7
:1023C00007967C018E010F5F1F4F21E030E043E054
:1023D00050E060E081E00E943009C8010E94750F62
:1023E000C7010E94750F01E117E28BE00E94EB012B
:1023F000892B59F40150110909F474C061E070E0AF
:1024000080E090E00E94A702F0CF6AE472E0CE0183
:1024100007960E94440F69E572E0CE0101960E9482
:10242000440FD12CC12CCE0107967C018E010F5F89
:102430001F4F21E030E042E050E060E080E00E9489
:102440003009C8010E94750FC7010E94750F8BE00B
:102450000E94EB010197D9F365E672E0CE01079681
:102460000E94440F65E772E0CE0101960E94440F7E
:1024700090EDC92E97E0D92ECE0107967C018E01F2
:102480000F5F1F4F30E020E042E050E060E080E06E
:102490000E943009C8010E94750FC7010E94750F84
:1024A0008BE00E94EB010197E9F461E872E0C7015B
:1024B0000E94440F6BE872E0C8010E94440F88EE4E
:1024C000C82E83E0D82E22E030E041E050E061E009
:1024D00080E00E943009C8010E94750FC7010E9468
:1024E000750F93CF60E671E0CE0107960E94440F0E
:1024F0006AE972E0CE0101960E94440FD12CC12CF2
:10250000CE0107967C018E010F5F1F4F30E020E067
:1025100043E050E060E080E00E943009C8010E9482
:10252000750FC7010E94750F0E9437112C960FB6C8
:10253000F894DEBF0FBECDBFDF91CF911F910F91F9
:10254000FF90EF90DF90CF900895BF92CF92DF92EF
:10255000EF92FF920F931F93CF93DF93CDB7DEB728
:10256000C756D1090FB6F894DEBF0FBECDBF8EE6B9
:1025700096E00E941D04843609F49EC2B4F48136AC
:10258000F9F0833609F4A8C4C959DF4F0FB6F8949F
:10259000DEBF0FBECDBFDF91CF911F910F91FF9096
:1025A000EF90DF90CF90BF900895823709F497C4E1
:1025B000873709F4D1C38F3639F70E94AD10E4CFC5
:1025C0008091F604811126C065EA72E0CE01019681
:1025D0000E94440F65EB72E0CE01865B9F4F0E9424
:1025E000440F6EEEC62E62E0D62ECE0101967C011F
:1025F0008E01065B1F4F30E020E050E040E061E0DC
:1026000080E00E943009C8010E94750FC7010E9436
:10261000750FDDC066EC72E0CE0101960E94440F9A
:1026200065ED72E0CE01865B9F4F0E94440FD12C76
:10263000C12CCE0101967C018E01065B1F4F30E05C
:1026400020E050E040E060E080E00E943009C801F6
:102650000E94750FC7010E94750F0E940D10B82EC1
:10266000882309F40FC265EE72E0CE018A5A9F4FAB
:102670000E94440FBE016A5A7F4FC7010E943B0F60
:102680006B2DC7010E94920EBC01CE01805B9F4F53
:102690000E943B0FC7010E94750F8FE496E00E94D5
:1026A00054046CEE72E0C7010E94440F68EF72E0C0
:1026B000C8010E94440F22E030E041E050E060E0B9
:1026C00080E00E943009C8010E94750FC7010E9476
:1026D000750F0E94400D8823F1F08230D1F366E13E
:1026E00073E0CE0101960E94440F63E273E0CE01D5
:1026F000865B9F4F0E94440FB8EECB2EB3E0DB2EDB
:10270000CE0101967C018E01065B1F4F21E030E077
:1027100043E050E044C065E073E0CE0101960E94C2
:10272000440F6FE073E0CE01865B9F4F0E94440F21
:1027300038ECC32ED12CCE0101967C018E01065BB4
:102740001F4F23E030E044E050E060E080E00E9472
:102750003009C8010E94750FC7010E94750F81E002
:102760000E94720D8823B1F164E673E0CE010196F8
:102770000E94440F64E773E0CE01865B9F4F0E9486
:10278000440F84EFC82EDD24D394CE0101967C0142
:102790008E01065B1F4F21E030E041E050E061E038
:1027A00080E00E943009C8010E94750FC7010E9495
:1027B000750FCE01805B9F4F0E94750FCE018A5A24
:1027C0009F4F0E94750F8EE696E00E9454040E946F
:1027D0007D0FDACE6DE273E0CE0101960E94440FC8
:1027E00068E373E0CE01865B9F4F0E94440F28ECA4
:1027F000C22ED12CCE0101967C018E01065B1F4FAB
:1028000022E030E041E050E060E080E00E943009EA
:10281000C8010E94750FC7010E94750F66E473E03E
:10282000C7010E94440F63E573E0C8010E94440F92
:10283000D12CC12C22E030E050E040E060E080E0AC
:102840000E943009C8010E94750FC7010E94750FD0
:102850000E94400D8230E1F765E873E0CE010196F9
:102860000E94440F63E973E0CE01865B9F4F0E9494
:10287000440FD12CC12CCE0101967C018E01065B48
:102880001F4F21E030E042E050E060E080E00E9435
:102890003009C8010E94750FC7010E94750F0E9480
:1028A000400D8111FCCF65E073E0CE0101960E94DE
:1028B000440F6FE073E0CE01865B9F4F0E94440F90
:1028C00098ECC92ED12CCE0101967C018E01065BBD
:1028D0001F4F23E030E044E050E060E080E00E94E1
:1028E0003009C8010E94750FC7010E94750F82E070
:1028F0000E94720D8111BDC06DE273E0C7010E949C
:10290000440F68E373E0C8010E94440F22E030E006
:1029100041E050E060E080E00E943009C8010E9480
:10292000750FC7010E94750F85E02B968FAF2B970F
:10293000A80161E070E0C7010E942B0DC7010E9451
:102940008D00C7010E94D9028111C9CE8F818730C5
:1029500009F0C5CE8A858111C2CE6EEB73E0CE013F
:1029600001960E94440F6BEC73E0CE01865B9F4F93
:102970000E94440F04E6C02ED12CCE0101967C01AA
:102980008E01065B1F4F22E030E041E050E060E046
:1029900080E00E943009C8010E94750FC7010E94A3
:1029A000750F86E02B968FAF2B9781E02C968FAF1B
:1029B0002C972D961FAE2D972E96BFAE2E97A80161
:1029C00064E070E0C7010E942B0DC7010E948D00DA
:1029D000C7010E94D902811182CE8F81873009F010
:1029E0007ECE8A8581117BCEBE01605B7F4FCE019A
:1029F00001960E943B0F6AED73E0CE01865B9F4F0C
:102A00000E94440F18EEC12E13E0D12ECE01019684
:102A10007C018E01065B1F4F23E030E050E040E078
:102A200060E081E00E943009C8010E94750FC70173
:102A30000E94750F66E473E0C7010E94440F63E5CE
:102A400073E0C8010E94440FD12CC12C22E030E079
:102A500050E040E060E080E00E943009C8010E9440
:102A6000750FC7010E94750F0E94400D8230E1F77B
:102A7000A0CE6DE973E0CE0101960E94440F6FEA8B
:102A800073E07ACE6AEE73E0CE0101960E94440FA5
:102A900065EF73E0CE01865B9F4F0E94440FA4EF69
:102AA000CA2EDD24D394CE0101967C018E01065BF3
:102AB0001F4F23E030E0F9C18091F604882309F428
:102AC00083CD6FEF73E0CE0101960E94440F6FE05B
:102AD00074E0CE01865B9F4F0E94440FD12CC12C25
:102AE000CE0101967C018E01065B1F4F30E020E095
:102AF00050E040E060E080E00E943009C8010E94A0
:102B0000750FC7010E94750F0E940D10B82E882303
:102B100009F4B8CF68EE72E0CE018E599F4F0E9443
:102B2000440F6FE174E0CE01845A9F4F0E94440F1E
:102B3000BE016E597F4FC7010E943B0F6B2DC7012D
:102B40000E94920EBE01645A7F4F0E94DE0EBC01AD
:102B5000CE018A5A9F4F0E943B0FC7010E94750FFA
:102B600060E972E0CE01805B9F4F0E94440F69E2F2
:102B700074E0C7010E94440FBE016A5A7F4FC8012A
:102B80000E943B0F22E030E041E050E060E080E056
:102B90000E943009C8010E94750FC7010E94750F7D
:102BA0008EE696E00E940504892BD1F38EE696E02E
:102BB0000E941D048E3609F4B1C0893709F09BC00C
:102BC000BE016E597F4FCE0101960E943B0F6B2DC7
:102BD000CE0101960E94920EBE01605B7F4F0E9463
:102BE000DE0EBC01CE018A5A9F4F0E94110FCE010A
:102BF00001960E94750F8FE496E00E9454048FE4C2
:102C000096E00E9454042F961DAE1EAE1FAE2F9765
:102C10008CE02B968FAF2B9781E02F968FAF2F975D
:102C20002C961FAE2C972D96BFAE2D97AE01465B0E
:102C30005F4F65E070E0CE0101960E942B0DCE0142
:102C400001960E948D00CE0101960E94D902811149
:102C500006C08F81873019F48A85882331F166E1B7
:102C600073E0CE01865B9F4F0E94440F63E273E0E6
:102C7000CE0101960E94440FF8EECF2EF3E0DF2E36
:102C8000CE01865B9F4F7C018E010F5F1F4F21E0BD
:102C900030E043E050E061E080E00E943009C8018C
:102CA0000E94750FC7010E94750F65E374E0CE01A5
:102CB00001960E94440FBE016A5A7F4FCE01865B87
:102CC0009F4F0E943B0FE8EECE2EE3E0DE2ECE01BA
:102CD00001967C018E01065B1F4F23E030E041E04E
:102CE00050E060E081E00E943009C8010E94750F49
:102CF000C7010E94750FCE01805B9F4F0E94750F28
:102D0000CE018A5A9F4F0E94750FCE01845A9F4F61
:102D10000E94750FCE018E599F4F53CD6AEE73E01E
:102D2000CE0101960E94440F65EF73E0CE01865BF1
:102D30009F4F0E94440F74EFC72EDD24D394CE0121
:102D400001967C018E01065B1F4F23E030E043E0DB
:102D500050E061E080E0C7CF8091F604882309F459
:102D600033CC6EE374E0CE0101960E94440F6CE414
:102D700074E0CE01865B9F4F0E94440FD12CC12C82
:102D8000CE0101967C018E01065B1F4F21E030E0F1
:102D900050E040E060E080E00E943009C8010E94FD
:102DA000750FC7010E94750F8EE696E00E9405041C
:102DB000892BD1F38EE696E00E941D048E3609F42D
:102DC00079C0893709F0FFCC8FE496E00E94540463
:102DD0006CE574E0CE0101960E94440F68E674E051
:102DE000CE01865B9F4F0E94440F54EFC52EDD2419
:102DF000D394CE0101967C018E01065B1F4F22E029
:102E000030E044E050E060E080E00E943009C8011A
:102E10000E94750FC7010E94750F0E94A70D8111B6
:102E20002BC08DE02B968FAF2B97A80161E070E04F
:102E3000C7010E942B0DC7010E948D00C7010E948F
:102E4000D9026FE674E0C7010E94440F6FE774E097
:102E5000C8010E94440F48EEC42E43E0D42E30E057
:102E600020E042E050E060E081E00E943009C801CB
:102E70000E94750FC701A5CC66E173E0CE010196F3
:102E80000E94440F63E273E0CE01865B9F4F0E9475
:102E9000440F38EEC32E33E0D32ECE0101967C01D1
:102EA0008E01065B1F4F21E030E043E050E061E01F
:102EB00080E0DBCF6AEE73E0CE0101960E94440F02
:102EC00065EF73E0CE01865B9F4F0E94440F28EEB2
:102ED000C22E23E0D22EE7CD0E94371155CB69E2F6
:102EE00074E0CE0101960E94440F6BE874E0CE01BD
:102EF000865B9F4F0E94440FD12CC12CCE010196BE
:102F00007C018E01065B1F4F23E030E042E050E081
:102F100060E080E00E943009C8010E94750FC7017F
:102F20000E94750F8EE696E00E940504892BD1F36E
:102F30008EE696E00E941D048E36B9F1893709F0BD
:102F400023CB60E671E0CE0101960E94440F69E94F
:102F500074E0CE01865B9F4F0E94440F90EDC92E16
:102F600097E0D92ECE0101967C018E01065B1F4FA2
:102F700030E020E042E050E060E080E00E94300974
:102F8000C8010E94750FC7010E94750F60E083E0C1
:102F90000E94140268EE73E080E090E00E94A702B5
:102FA00061E083E00E94140212CC6AEE73E0CE016D
:102FB000865B9F4F0E94440F65EF73E0CE01019640
:102FC0000E94440F88EEC82E83E0D82ECE01865B87
:102FD0009F4F7C018E010F5F1F4F23E030E043E0E5
:102FE00050E00DCB8EE696E00E9454048091970548
:102FF000909198052091920530919305AC01421B68
:10300000530B4A31510590F09093930580939205AC
:103010008EEB96E00E94A6078EEB96E00E94920748
:10302000882321F00E94AD100E94C1118EE696E027
:103030000E9405041816190614F40C94A51208959C
:103040000E94A70D91E0811190E09093F604811108
:1030500002C00C947D0F0E947D0F0E94520370935A
:103060009805609397052091950530919605AB01E1
:10307000421B530B43335105B8F070939605609390
:10308000950587E00E94EB0121E0892B09F420E0FF
:103090002093940580918F05281731F00E947D0FB1
:1030A0008091940580938F050E94F217D6CF85ED0D
:1030B0008093BC008091E3059091E405A091E50523
:1030C000B091E6050796A11DB11D23E0B695A79521
:1030D000979587952A95D1F72091BC0024FD03C0D0
:1030E0001092E10508954091E3055091E405609147
:1030F000E5057091E605452B462B472B69F30097B4
:10310000A105B10541F025E32A95F1F700000197EB
:10311000A109B109E1CF8091E2050C94FE051F924F
:103120000F920FB60F9211242F933F938F939F937B
:10313000AF93BF938091850590918605A0918705F7
:10314000B09188053091840523E0230F2D3758F581
:103150000196A11DB11D2093840580938505909350
:103160008605A0938705B093880580918905909185
:103170008A05A0918B05B0918C050196A11DB11D0A
:103180008093890590938A05A0938B05B0938C0555
:10319000BF91AF919F918F913F912F910F900FBE53
:1031A0000F901F90189526E8230F0296A11DB11DC0
:1031B000D2CF1F920F920FB60F9211242F933F93ED
:1031C0004F935F936F937F938F939F93AF93BF932F
:1031D000EF93FF93E0918205F0918305309749F0DA
:1031E000A685B7858585968D91FF14C09C9189230E
:1031F000A1F4FF91EF91BF91AF919F918F917F913A
:103200006F915F914F913F912F910F900FBE0F9053
:103210001F9018959C91892361F7A389B4899C918B
:103220008589809589238C93868997890197F1F701
:10323000608D718DA685B785558538E020E0CB017E
:103240000197F1F7822F90E095958795282F4C9163
:10325000452309F02068315091F7868D81FD209536
:103260008091800590E001968F73992730918105B8
:10327000381799F0A0918005B0E0A05CBA4F2C936C
:1032800080938005828D938D0197F1F7A389B4898E
:103290008C919589892B8C93ACCF868D8160868F9C
:1032A000F1CF1F920F920FB60F9211242F933F93DD
:1032B0004F935F936F937F938F939F93AF93BF933E
:1032C000EF93FF938091B900887F803609F44AC05C
:1032D000F0F5883209F4A7C018F5803109F49BC0D5
:1032E000B8F4882309F4F9C0883009F494C0FF9138
:1032F000EF91BF91AF919F918F917F916F915F916E
:103300004F913F912F910F900FBE0F901F901895E6
:10331000883109F488C0803251F78093DF0514C0EA
:10332000803409F49DC040F48033B9F38833F9F652
:103330008093DF0585ECB0C0803509F485C0883501
:1033400009F496C0883499F60E945718D0CF88396E
:1033500009F48CC038F5883729F050F4883611F01C
:10336000803729F683E08093E10510923F0557C02E
:10337000883809F47BC0803919F0803809F0B7CF5C
:1033800080913F05803208F071C0E0913F0581E0F7
:103390008E0F80933F058091BB00F0E0E15EFA4F15
:1033A00080833DC0803B39F0E0F4803A09F479C075
:1033B000883A09F09CCF84E08093E10510921C05C7
:1033C00010921B05E0911905F0911A05099580915D
:1033D0001B0581110FC081E080931B051092F90439
:1033E00009C0803C09F4A6CF883C09F4A3CF883BF0
:1033F00009F07DCFE0911C0581E08E0F80931C05C4
:10340000F0E0E750FB4F80818093BB0090911C055A
:1034100080911B0529C08091BC058093BB0085EC81
:103420008093BC0064CF9091DE058091DD059817F4
:1034300058F5E091DE0581E08E0F8093DE05F0E027
:10344000E354FA4F8081E9CFE091DE0581E08E0FF1
:103450008093DE058091BB00F0E0E354FA4F808357
:103460009091DE058091DD059817C8F285E8D8CFE8
:10347000E091DE0581E08E0F8093DE058091BB0038
:10348000F0E0E354FA4F80838091E00581115CCF36
:1034900081E08093BB0584EA8093BC001092E10533
:1034A00026CF85EC8093BC001092E10580913F050A
:1034B000803230F4E0913F05F0E0E15EFA4F108297
:1034C00060913F0570E0E0911D05F0911E058FE1D0
:1034D00095E0099510923F050ACF1092DF0534CF91
:1034E0000F931F93CF93DF93EC01162F042F1B82B2
:1034F0001A8288EE93E0A0E0B0E08C839D83AE83D7
:10350000BF838AE091E0998388831F8A1E8A198E7F
:10351000188E1B8E1A8E1D8E1C8E6E8D6E7F6D7F8B
:103520006E8F6695617081E06827842F0E94140277
:1035300061E0802F0E944202802F90E0FC01E25562
:10354000FF4FE491E88BFC01E656FF4FE491F0E079
:10355000EE0FFF1FE057FF4F859194919A8B898B57
:1035600060E0812F0E9442028E8D81FD04C061E0E7
:10357000812F0E9414021C87812F90E0FC01E255EC
:10358000FF4FE491ED87FC01E656FF4FE491F0E038
:10359000EE0FFF1FEA57FF4F859194919F878E870B
:1035A000DF91CF911F910F910895CF93DF93EBE0BF
:1035B000F6E01382128288EE93E0A0E0B0E084830C
:1035C0009583A683B7838CE191E091838083EEEBB2
:1035D000F6E012821382148215828AE090E09783CB
:1035E000868310868AE591E091838083118AC1E900
:1035F000D6E01B821A828EE291E0998388831F8233
:10360000188680ED97E0A0E0B0E0888B998BAA8BBC
:10361000BB8B86E290E0A0E0B0E08C8B9D8BAE8B04
:10362000BF8B1C861D861E861F861B860E948202FB
:10363000688F798F8A8F9B8F1C8E1D8E1E8E1F8E9A
:1036400084E491E09983888318A21AA219A2EDE874
:10365000F6E010828FEF818348E069E08EE696E025
:103660000E94701A45E064E08FE496E00E94701AB0
:10367000E7E1F6E0178216821186108620E430E03A
:1036800033872287158614868FEF9FEFDC018687AC
:103690009787A08BB18B338B228B20E031EE358B5B
:1036A000248B168A178A108E118E828F938FA48F87
:1036B000B58F17AA16AA8FE496E095AB84AB93ABAF
:1036C00082ABDF91CF910895CF93DF93CDB7DEB773
:1036D000CF54D1090FB6F894DEBF0FBECDBF78949A
:1036E00084B5826084BD84B5816084BD85B5826007
:1036F00085BD85B5816085BD80916E0081608093B8
:103700006E00109281008091810082608093810020
:103710008091810081608093810080918000816030
:10372000809380008091B10084608093B10080918B
:10373000B00081608093B00080917A0084608093B3
:103740007A0080917A00826080937A0080917A007A
:10375000816080937A0080917A00806880937A00FB
:103760001092C10080919D0681110CC080919E062F
:10377000811108C080919F06811104C08091A0062C
:10378000882321F0809198068F7E59F010929D0633
:1037900080E480939E0680E180939F0680E580937D
:1037A000A00682E08093990680E18093980664E603
:1037B00070E080E090E00E94A7021092950681E9F7
:1037C00096E00E94500B892B09F04CC0809199061D
:1037D000823028F08091950688608093950680E37A
:1037E0000E94050965E070E080E090E00E94A70279
:1037F00080E30E94050961E070E080E090E00E94B3
:10380000A70280E30E94050961E070E080E090E09B
:103810000E94A7028091950684FD03C080E20E9469
:10382000050960919506606281E996E00E940605AF
:1038300084E0809396066CE081E996E00E9406059C
:1038400061E081E996E00E94060582E08093970698
:1038500066E081E996E00E9406056FEF81E996E057
:103860000E94650861E08DE00E94420261E08CE008
:103870000E94420260E087E00E94420261E083E031
:103880000E94420262E08BE00E94420260E083E01C
:103890000E94140261E08CE00E94140261E08DE05D
:1038A0000E94140282E280938F0686E9809390063C
:1038B0008AE080938D068FEF80938E0660E08AE029
:1038C0000E94140261E080918D060E944202809164
:1038D0008E05811122C080918D0581111EC02FB7E8
:1038E000F89482E0809380008AE18093810088EBE5
:1038F0009BE0909389008093880090938B00809345
:103900008A0080E49CE990938700809386008091F0
:103910006F00887F80936F002FBF80918D06893064
:1039200049F481E080938E05809180008F738068D8
:103930008093800080918D068A3049F481E08093E5
:103940008D05809180008F7C80628093800062E092
:1039500086E00E94420286E08093CF061092C6065F
:103960008EEB96E00E949C07882329F08091C60682
:1039700083608093C6060E9452036093C0067093D2
:10398000C1068093C2069093C30689E190E09093AC
:10399000C5068093C40640E855E260E070E08EE61C
:1039A00096E00E947D0468EE73E080E090E00E9463
:1039B000A702E0914D06F0914E06309741F1A089A3
:1039C000B18982E08C93A089B1891C92A485B585C8
:1039D0001C92A685B78580E18C93108EA489B58949
:1039E00086E08C93A289B3898C9180618C93A289A3
:1039F000B3898C9188608C93A289B3898C918068FB
:103A00008C930288F389E02D80818F7D8083809163
:103A10004B0690914C06009731F040E051EE60E08B
:103A200070E00E947D048BE00E94EB01019709F099
:103A300054C090E080E00E9440010E94C11164EFF8
:103A400071E080E090E00E94A7020E942018772495
:103A5000739454E0652E60E0A62E60E0B62E70E010
:103A6000872E70E0972E0E94520370939805609302
:103A700097052091950530919605AB01421B530B9C
:103A800043335105B8F0709396056093950587E030
:103A90000E94EB0121E0892B09F420E0209394059A
:103AA00080918F05281731F00E947D0F8091940539
:103AB00080938F05809194058823A1F00E94F217CE
:103AC000A114B10481F28114910469F20E940000F2
:103AD000882349F20E940000C6CF84EB90E00E9448
:103AE0004001ADCF80918E06843B11F00E94C11140
:103AF00080919705909198052091920530919305BA
:103B0000AC01421B530B4A31510590F09093930541
:103B1000809392058EEB96E00E94A6078EEB96E0CE
:103B20000E949207882321F00E94AD100E94C111CB
:103B3000809197059091980520919005309191057D
:103B4000AC01421B530B4536510508F4B9CF909395
:103B50009105809390058FE496E00E9454040E94A2
:103B6000400D882399F0813009F481C08EEB96E0F6
:103B70000E94A6078EEB96E00E949207882309F424
:103B80009FCF0E94AD100E94C1119ACF65E073E0F3
:103B9000CE0101960E94440F6FE073E0CE01865B78
:103BA0009F4F0E94440F48ECC42ED12CCE010196A9
:103BB0007C018E01065B1F4F23E030E044E050E0C3
:103BC00060E080E00E943009C8010E94750FC701C3
:103BD0000E94750F81E00E94720D882309F44AC08B
:103BE000863009F06DCF63EC74E0CE0101960E943F
:103BF000440F60ED74E0CE01865B9F4F0E94440F3E
:103C000028EEC22E23E0D22ECE0101967C018E0139
:103C1000065B1F4F21E030E042E050E061E080E0D1
:103C20000E943009C8010E94750FC7010E94750FDC
:103C300066E473E0C7010E94440F63E573E0C801C6
:103C40000E94440FD12CC12C22E030E050E040E033
:103C500060E080E00E943009C8010E94750FC70132
:103C60000E94750F0E94400D8230E1F729CF0E941B
:103C70002018B0CF67EA74E0CE0101960E94440F8D
:103C800066EB74E0CE01865B9F4F0E94440F38ECD8
:103C9000C32ED12CAE014F5F5F4F7A018E01065BC0
:103CA0001F4F21E030E041E050E060E080E00E9402
:103CB0003009C8010E94750FC7010E94750F2E962A
:103CC0001FAE1EAE2E972B966FAE2B972C967FAE07
:103CD0002C9780912106909122062F969FAF2F97C7
:103CE00060968FAF6097A80166E070E0C7010E9400
:103CF0002B0DC7010E948D00C7010E94D9028111BE
:103D00001BC08F818730C1F48B859C8598278927BC
:103D1000982790931806809317068D859E8598277F
:103D20008927982790931A06809319068A858823F5
:103D300049F1813009F068C066E173E0CE01019677
:103D40000E94440F63E273E0CE01865B9F4F0E94A6
:103D5000440F98EEC92E93E0D92ECE0101967C0136
:103D60008E01065B1F4F21E030E043E050E061E050
:103D700080E00E943009C8010E94750FC7010E94AF
:103D8000750F9ECE68ED74E0CE0101960E94440F3F
:103D900068EE74E0CE01865B9F4F0E94440FD12CE9
:103DA000C12CCE0101967C018E01065B1F4F21E0E4
:103DB00030E042E050E060E080E00E943009C8015D
:103DC0000E94750FC7010E94750F0E94AD1066E436
:103DD00073E0C7010E94440F63E573E0C8010E94CD
:103DE000440F22E030E050E040E060E080E00E94DC
:103DF0003009C8010E94750FC7010E94750F0E940B
:103E0000400D8230E1F7BFCE893009F059CE63EC26
:103E100074E0CE0101960E94440F60ED74E0CE0183
:103E2000865B9F4F0E94440F88EEC82E83E0D82EF9
:103E3000AE014F5F5F4F7A018E01065B1F4F21E09D
:103E400030E042E050E061E080E00E943009C801CB
:103E50000E94750FC7010E94750F66E473E0C701E9
:103E60000E94440F63E573E0C8010E94440FD12C07
:103E7000C12C22E030E050E040E060E080E00E94B1
:103E80003009C8010E94750FC7010E94750F0E947A
:103E9000400D8230E1F70E947D0F12CECF93DF9369
:103EA000CAE0D1E0D0935006C0934F068FE496E06D
:103EB0000E943E04D0936F06C0936E068EE696E095
:103EC000DF91CF910C943E04BB274A3031F4992303
:103ED00022F4BDE2909581959F4F0C94701FBB27F3
:103EE000FB015527AA27880F991FAA1FA41710F0B6
:103EF000A41B83955051B9F7A05DAA3308F0A95DC2
:103F0000A193009779F7B111B1931192CB010C9461
:103F1000891FDC01FC01672F71917723E1F732974C
:103F200004C07C916D9370836291AE17BF07C8F394
:103F300008950E94DB1FA59F900DB49F900DA49F34
:103F4000800D911D112408952F923F924F925F9200
:103F50006F927F928F929F92AF92BF92CF92DF9299
:103F6000EF92FF920F931F93CF93DF93CDB7DEB7FE
:103F7000CA1BDB0B0FB6F894DEBF0FBECDBF099492
:103F80002A88398848885F846E847D848C849B84E9
:103F9000AA84B984C884DF80EE80FD800C811B81F7
:103FA000AA81B981CE0FD11D0FB6F894DEBF0FBE26
:103FB000CDBFED010895A29FB001B39FC001A39FA3
:103FC000700D811D1124911DB29F700D811D112452
:103FD000911D089597FB072E16F4009407D077FDE6
:103FE00009D00E944D2007FC05D03EF490958195A4
:103FF0009F4F0895709561957F4F0895A1E21A2E05
:10400000AA1BBB1BFD010DC0AA1FBB1FEE1FFF1F7C
:10401000A217B307E407F50720F0A21BB30BE40BCC
:10402000F50B661F771F881F991F1A9469F7609513
:104030007095809590959B01AC01BD01CF010895CD
:10404000052E97FB1EF400940E94372057FD07D0E1
:104050000E94FE1F07FC03D04EF40C9437205095AD
:104060004095309521953F4F4F4F5F4F0895909564
:104070008095709561957F4F8F4F9F4F0895EE0FFC
:10408000FF1F0590F491E02D0994B7FF0C94991F40
:104090000E94991F821B930B0895AA1BBB1B51E121
:1040A00007C0AA1FBB1FA617B70710F0A61BB70BA8
:1040B000881F991F5A95A9F780959095BC01CD014D
:1040C00008950F931F93CF93DF938230910510F4DF
:1040D00082E090E0E091D206F091D30630E020E05B
:1040E000B0E0A0E0309799F42115310509F44AC0F9
:1040F000281B390B24303105D8F58A819B81611545
:10410000710589F1FB0193838283FE0111C0408117
:1041100051810281138148175907E0F04817590768
:1041200099F4109761F012960C93129713961C93C2
:104130003296CF01DF91CF911F910F910895009397
:10414000D2061093D306F4CF2115310551F0421752
:10415000530738F0A901DB019A01BD01DF01F80125
:10416000C1CFEF01F9CF9093D3068093D206CDCF84
:10417000FE01E20FF31F819391932250310939839D
:104180002883D7CF2091D0063091D106232B41F43C
:1041900020910201309103013093D1062093D00683
:1041A00020910001309101012115310541F42DB715
:1041B0003EB74091040150910501241B350BE0915D
:1041C000D006F091D106E217F307A0F42E1B3F0BA7
:1041D0002817390778F0AC014E5F5F4F2417350779
:1041E00048F04E0F5F1F5093D1064093D006819345
:1041F00091939FCFF0E0E0E09CCFCF93DF930097C7
:10420000E9F0FC01329713821282A091D206B0919C
:10421000D306ED0130E020E01097A1F42081318138
:10422000820F931F2091D0063091D10628173907AD
:1042300009F061C0F093D106E093D006DF91CF91F1
:104240000895EA01CE17DF07E8F54A815B819E01F8
:1042500041155105B1F7E901FB83EA834991599171
:10426000C40FD51FEC17FD0761F480819181029680
:10427000840F951FE90199838883828193819B83B1
:104280008A83F0E0E0E012968D919C91139700975D
:10429000B9F52D913C911197CD010296820F931F94
:1042A0002091D0063091D1062817390739F630977A
:1042B00051F51092D3061092D206B093D106A09376
:1042C000D006BCCFD383C28340815181840F951F18
:1042D000C817D90761F44E5F5F4F88819981480FF5
:1042E000591F518340838A819B8193838283211547
:1042F000310509F0B0CFF093D306E093D2069ECFFC
:10430000FD01DC01C0CF13821282D7CFB0E0A0E064
:10431000ECE8F1E20C94A61F8C01009751F4CB015C
:104320000E9461208C01C801CDB7DEB7E0E10C949A
:10433000C21FFC01E60FF71F9C0122503109E21752
:10434000F30708F49DC0D901CD91DC911197C617F0
:10435000D70798F0C530D10530F3CE010497861702
:10436000970708F3C61BD70B2297C193D1936D9380
:104370007C93CF010E94FD20D6CF5B01AC1ABD0A11
:104380004C018C0E9D1EA091D206B091D306512CEB
:10439000412CF12CE12C109731F58091D0069091B1
:1043A000D1068815990509F05CC04616570608F035
:1043B00058C08091000190910101009741F48DB7A0
:1043C0009EB74091040150910501841B950BE8179D
:1043D000F90708F055C0F093D106E093D006F90133
:1043E00071836083A0CF8D919C91119712966C90F0
:1043F000129713967C901397A815B90559F56C017F
:1044000042E0C40ED11CCA14DB0420F1AC014A19ED
:104410005B09DA011296159780F0628273825183EC
:104420004083D9016D937C93E114F10471F0D701BD
:104430001396FC93EE93129776CF22968C0F9D1FC6
:10444000F90191838083F301EFCFF093D306E093DA
:10445000D20669CF4816590608F42C017D01D30114
:104460009ACFCB010E9461207C01009749F0AE01F8
:10447000B8010E944822C8010E94FD20870153CF45
:1044800010E000E050CF81E090E0F8940C945822C6
:10449000FB01DC0102C001900D9241505040D8F761
:1044A0000895FB01DC0101900D920020E1F70895D1
:1044B00010E0C2E6D0E004C0FE010E943F20219639
:1044C000C336D107C9F7F894FFCF0000D4068000A7
:1044D00000000000A9039501B605A80305041D040A
:1044E0005E03000000005E073107B605A8032A0737
:1044F000170708070000000065059501B6052F099C
:10450000B605B305560EB005B00500000000650500
:104510009501B6052F09500B550A97086508B00597
:10452000000000009C077E020D0A00656E6761674F
:10453000656421004D61696E74656E616E6365200E
:104540006D6F64650066696E67657220746F2073B5
:1045500063616E2E2E2E0057616974696E67206646
:104560006F7200436F6E6E656374206170702E0011
:104570005363616E6E6572206572726F7200766150
:104580006C696420696421203C312C32303E00503B
:104590006C65617365207069636B00616C72656145
:1045A0006479206F70656E2E004C6F636B206973A9
:1045B000004F70656E696E672E2E2E006265656E07
:1045C000206F70656E656421004C6F636B206861BD
:1045D0007300616C726561647920636C6F736564EC
:1045E0002E00436C6F73696E672E2E2E0062656518
:1045F0006E20636C6F73656421004E6F77206F705F
:10460000656E20646F6F72732E00556E6C6F636BF6
:10461000656421005374616E64696E672062792E4F
:104620002E2E00446F6F7273206F70656E2E004CDB
:104630006F636B696E672073686F72746C79004486
:104640006F6F727320736875742E0072656F70657A
:104650006E65642E00446F6F727320686173206210
:1046600065656E004C6F636B696E672E2E2E00536E
:1046700063616E6E6572206973206F66662E0055E9
:104680006E617661696C61626C65207768656E0049
:104690007061747465726E203C312C32303E005073
:1046A00069636B20494420746F20736176650061F3
:1046B0007420494420006F6E207363616E6E6572D2
:1046C0002E00506C6163652066696E6765720064D8
:1046D00065746563746564210046696E6765720080
:1046E000686173206F6363757265642E00416E208C
:1046F0006572726F7220006F662066696E67657200
:104700002E00476F742074686520696D61676500CD
:104710006F6666207363616E6E65722E0054616B06
:104720006520796F75722066696E676572005374D3
:1047300061727420616C6C206F7665722E00496D19
:1047400061676520746F6F206D65737379210066F2
:10475000696E67657220616761696E2E004E6F77C2
:1047600020706C6163650077726F6E672C207472C5
:104770007920616761696E2E00536F6D6574686999
:104780006E672077656E74006F662066696E676578
:10479000722E2E2E004372656174696E67206D6FF4
:1047A00064656C0046696E67657220697320736189
:1047B0007665640063616E63656C6C65642E004FA2
:1047C0007065726174696F6E0066726F6D206D65E1
:1047D0006D203C312C32303E005069636B204944DF
:1047E00020746F20776970650020746F207769707E
:1047F000652E00537572653F2028592F4E2900639E
:104800006C656172656421005265616C6C793F2052
:1048100028592F4E2900436C6561722064617461D0
:10482000626173652E0064617461626173652E2E2E
:104830002E00576970696E6700646174616261730C
:104840006520636C656172210046696E67657270F0
:1048500072696E740052657374617274206C6F6358
:104860006B2E0052657374617274696E672E2E2E02
:104870000076616C6964206D617463682E2E2E0071
:10488000436865636B696E6720666F720066696E68
:104890006765727072696E742E00496E76616C691C
:1048A00064004F70656E696E67206C6F636B2E2EAF
:1048B0002E00466F756E64206D6174636821000080
:107E0000112484B714BE81FFF0D085E080938100F7
:107E100082E08093C00088E18093C10086E0809377
:107E2000C20080E18093C4008EE0C9D0259A86E02C
:107E300020E33CEF91E0309385002093840096BBD3
:107E4000B09BFECF1D9AA8958150A9F7CC24DD24C4
:107E500088248394B5E0AB2EA1E19A2EF3E0BF2EE7
:107E6000A2D0813461F49FD0082FAFD0023811F036
:107E7000013811F484E001C083E08DD089C08234E0
:107E800011F484E103C0853419F485E0A6D080C0E4
:107E9000853579F488D0E82EFF2485D0082F10E0AE
:107EA000102F00270E291F29000F111F8ED06801E7
:107EB0006FC0863521F484E090D080E0DECF843638
:107EC00009F040C070D06FD0082F6DD080E0C81688
:107ED00080E7D80618F4F601B7BEE895C0E0D1E017
:107EE00062D089930C17E1F7F0E0CF16F0E7DF06D8
:107EF00018F0F601B7BEE89568D007B600FCFDCFD4
:107F0000A601A0E0B1E02C9130E011968C91119780
:107F100090E0982F8827822B932B1296FA010C0160
:107F200087BEE89511244E5F5F4FF1E0A038BF0790
:107F300051F7F601A7BEE89507B600FCFDCF97BE46
:107F4000E89526C08437B1F42ED02DD0F82E2BD052
:107F50003CD0F601EF2C8F010F5F1F4F84911BD097
:107F6000EA94F801C1F70894C11CD11CFA94CF0C13
:107F7000D11C0EC0853739F428D08EE10CD085E9AC
:107F80000AD08FE07ACF813511F488E018D01DD067
:107F900080E101D065CF982F8091C00085FFFCCF94
:107FA0009093C60008958091C00087FFFCCF809118
:107FB000C00084FD01C0A8958091C6000895E0E648
:107FC000F0E098E1908380830895EDDF803219F02E
:107FD00088E0F5DFFFCF84E1DECF1F93182FE3DFCA
:107FE0001150E9F7F2DF1F91089580E0E8DFEE27F6
:047FF000FF270994CA
:027FFE00040479
:00000001FF
